{
  "contractName": "MyToken",
  "abi": [
    {
      "inputs": [
        {
          "internalType": "string",
          "name": "_name",
          "type": "string"
        },
        {
          "internalType": "string",
          "name": "_symbol",
          "type": "string"
        }
      ],
      "stateMutability": "nonpayable",
      "type": "constructor"
    },
    {
      "anonymous": false,
      "inputs": [
        {
          "indexed": true,
          "internalType": "address",
          "name": "from",
          "type": "address"
        },
        {
          "indexed": true,
          "internalType": "address",
          "name": "to",
          "type": "address"
        },
        {
          "indexed": false,
          "internalType": "uint256",
          "name": "value",
          "type": "uint256"
        }
      ],
      "name": "Transfer",
      "type": "event"
    },
    {
      "inputs": [],
      "name": "name",
      "outputs": [
        {
          "internalType": "string",
          "name": "",
          "type": "string"
        }
      ],
      "stateMutability": "view",
      "type": "function",
      "constant": true
    },
    {
      "inputs": [],
      "name": "symbol",
      "outputs": [
        {
          "internalType": "string",
          "name": "",
          "type": "string"
        }
      ],
      "stateMutability": "view",
      "type": "function",
      "constant": true
    },
    {
      "inputs": [
        {
          "internalType": "address",
          "name": "to",
          "type": "address"
        },
        {
          "internalType": "uint256",
          "name": "value",
          "type": "uint256"
        }
      ],
      "name": "transfer",
      "outputs": [],
      "stateMutability": "nonpayable",
      "type": "function"
    },
    {
      "inputs": [
        {
          "internalType": "address",
          "name": "to",
          "type": "address"
        },
        {
          "internalType": "uint256",
          "name": "value",
          "type": "uint256"
        }
      ],
      "name": "mint",
      "outputs": [],
      "stateMutability": "nonpayable",
      "type": "function"
    },
    {
      "inputs": [
        {
          "internalType": "address",
          "name": "account",
          "type": "address"
        }
      ],
      "name": "balanceOf",
      "outputs": [
        {
          "internalType": "uint256",
          "name": "",
          "type": "uint256"
        }
      ],
      "stateMutability": "view",
      "type": "function",
      "constant": true
    }
  ],
  "bytecode": "0x60806040523480156200001157600080fd5b5060405162000d8938038062000d898339818101604052810190620000379190620001f6565b8160019081620000489190620004c6565b5080600290816200005a9190620004c6565b505050620005ad565b6000604051905090565b600080fd5b600080fd5b600080fd5b600080fd5b6000601f19601f8301169050919050565b7f4e487b7100000000000000000000000000000000000000000000000000000000600052604160045260246000fd5b620000cc8262000081565b810181811067ffffffffffffffff82111715620000ee57620000ed62000092565b5b80604052505050565b60006200010362000063565b9050620001118282620000c1565b919050565b600067ffffffffffffffff82111562000134576200013362000092565b5b6200013f8262000081565b9050602081019050919050565b60005b838110156200016c5780820151818401526020810190506200014f565b60008484015250505050565b60006200018f620001898462000116565b620000f7565b905082815260208101848484011115620001ae57620001ad6200007c565b5b620001bb8482856200014c565b509392505050565b600082601f830112620001db57620001da62000077565b5b8151620001ed84826020860162000178565b91505092915050565b6000806040838503121562000210576200020f6200006d565b5b600083015167ffffffffffffffff81111562000231576200023062000072565b5b6200023f85828601620001c3565b925050602083015167ffffffffffffffff81111562000263576200026262000072565b5b6200027185828601620001c3565b9150509250929050565b600081519050919050565b7f4e487b7100000000000000000000000000000000000000000000000000000000600052602260045260246000fd5b60006002820490506001821680620002ce57607f821691505b602082108103620002e457620002e362000286565b5b50919050565b60008190508160005260206000209050919050565b60006020601f8301049050919050565b600082821b905092915050565b6000600883026200034e7fffffffffffffffffffffffffffffffffffffffffffffffffffffffffffffffff826200030f565b6200035a86836200030f565b95508019841693508086168417925050509392505050565b6000819050919050565b6000819050919050565b6000620003a7620003a16200039b8462000372565b6200037c565b62000372565b9050919050565b6000819050919050565b620003c38362000386565b620003db620003d282620003ae565b8484546200031c565b825550505050565b600090565b620003f2620003e3565b620003ff818484620003b8565b505050565b5b8181101562000427576200041b600082620003e8565b60018101905062000405565b5050565b601f82111562000476576200044081620002ea565b6200044b84620002ff565b810160208510156200045b578190505b620004736200046a85620002ff565b83018262000404565b50505b505050565b600082821c905092915050565b60006200049b600019846008026200047b565b1980831691505092915050565b6000620004b6838362000488565b9150826002028217905092915050565b620004d1826200027b565b67ffffffffffffffff811115620004ed57620004ec62000092565b5b620004f98254620002b5565b620005068282856200042b565b600060209050601f8311600181146200053e576000841562000529578287015190505b620005358582620004a8565b865550620005a5565b601f1984166200054e86620002ea565b60005b82811015620005785784890151825560018201915060208501945060208101905062000551565b8683101562000598578489015162000594601f89168262000488565b8355505b6001600288020188555050505b505050505050565b6107cc80620005bd6000396000f3fe608060405234801561001057600080fd5b50600436106100575760003560e01c806306fdde031461005c57806340c10f191461007a57806370a082311461009657806395d89b41146100c6578063a9059cbb146100e4575b600080fd5b610064610100565b60405161007191906104e1565b60405180910390f35b610094600480360381019061008f919061059c565b61018e565b005b6100b060048036038101906100ab91906105dc565b6101e7565b6040516100bd9190610618565b60405180910390f35b6100ce61022f565b6040516100db91906104e1565b60405180910390f35b6100fe60048036038101906100f9919061059c565b6102bd565b005b6001805461010d90610662565b80601f016020809104026020016040519081016040528092919081815260200182805461013990610662565b80156101865780601f1061015b57610100808354040283529160200191610186565b820191906000526020600020905b81548152906001019060200180831161016957829003601f168201915b505050505081565b806000808473ffffffffffffffffffffffffffffffffffffffff1673ffffffffffffffffffffffffffffffffffffffff16815260200190815260200160002060008282546101dc91906106c2565b925050819055505050565b60008060008373ffffffffffffffffffffffffffffffffffffffff1673ffffffffffffffffffffffffffffffffffffffff168152602001908152602001600020549050919050565b6002805461023c90610662565b80601f016020809104026020016040519081016040528092919081815260200182805461026890610662565b80156102b55780601f1061028a576101008083540402835291602001916102b5565b820191906000526020600020905b81548152906001019060200180831161029857829003601f168201915b505050505081565b806000803373ffffffffffffffffffffffffffffffffffffffff1673ffffffffffffffffffffffffffffffffffffffff16815260200190815260200160002054101561033e576040517f08c379a000000000000000000000000000000000000000000000000000000000815260040161033590610742565b60405180910390fd5b806000803373ffffffffffffffffffffffffffffffffffffffff1673ffffffffffffffffffffffffffffffffffffffff168152602001908152602001600020600082825461038c9190610762565b92505081905550806000808473ffffffffffffffffffffffffffffffffffffffff1673ffffffffffffffffffffffffffffffffffffffff16815260200190815260200160002060008282546103e191906106c2565b925050819055508173ffffffffffffffffffffffffffffffffffffffff163373ffffffffffffffffffffffffffffffffffffffff167fddf252ad1be2c89b69c2b068fc378daa952ba7f163c4a11628f55a4df523b3ef836040516104459190610618565b60405180910390a35050565b600081519050919050565b600082825260208201905092915050565b60005b8381101561048b578082015181840152602081019050610470565b60008484015250505050565b6000601f19601f8301169050919050565b60006104b382610451565b6104bd818561045c565b93506104cd81856020860161046d565b6104d681610497565b840191505092915050565b600060208201905081810360008301526104fb81846104a8565b905092915050565b600080fd5b600073ffffffffffffffffffffffffffffffffffffffff82169050919050565b600061053382610508565b9050919050565b61054381610528565b811461054e57600080fd5b50565b6000813590506105608161053a565b92915050565b6000819050919050565b61057981610566565b811461058457600080fd5b50565b60008135905061059681610570565b92915050565b600080604083850312156105b3576105b2610503565b5b60006105c185828601610551565b92505060206105d285828601610587565b9150509250929050565b6000602082840312156105f2576105f1610503565b5b600061060084828501610551565b91505092915050565b61061281610566565b82525050565b600060208201905061062d6000830184610609565b92915050565b7f4e487b7100000000000000000000000000000000000000000000000000000000600052602260045260246000fd5b6000600282049050600182168061067a57607f821691505b60208210810361068d5761068c610633565b5b50919050565b7f4e487b7100000000000000000000000000000000000000000000000000000000600052601160045260246000fd5b60006106cd82610566565b91506106d883610566565b92508282019050808211156106f0576106ef610693565b5b92915050565b7f496e73756666696369656e742062616c616e6365000000000000000000000000600082015250565b600061072c60148361045c565b9150610737826106f6565b602082019050919050565b6000602082019050818103600083015261075b8161071f565b9050919050565b600061076d82610566565b915061077883610566565b92508282039050818111156107905761078f610693565b5b9291505056fea2646970667358221220e0804513b4686b3f9f32906f781b6a4d527b2444e678a9768dd6231489c9719264736f6c63430008130033",
  "immutableReferences": {},
  "source": "pragma solidity ^0.8.0;\r\n\r\ncontract MyToken {\r\n    mapping(address => uint256) private balances;\r\n    string public name;\r\n    string public symbol;\r\n\r\n    event Transfer(address indexed from, address indexed to, uint256 value);\r\n\r\n    constructor(string memory _name, string memory _symbol) {\r\n        name = _name;\r\n        symbol = _symbol;\r\n    }\r\n\r\n    function transfer(address to, uint256 value) external {\r\n        require(balances[msg.sender] >= value, \"Insufficient balance\");\r\n        balances[msg.sender] -= value;\r\n        balances[to] += value;\r\n        emit Transfer(msg.sender, to, value);\r\n    }\r\n\r\n    function mint(address to, uint256 value) external {\r\n        balances[to] += value;\r\n    }\r\n\r\n    function balanceOf(address account) external view returns (uint256) {\r\n        return balances[account];\r\n    }\r\n}\r\n",
  "sourcePath": "E:\\desktop\\erc20-test\\contracts\\Mytoken.sol",
  "compiler": {
    "name": "solc",
    "version": "0.8.19+commit.7dd6d404.Emscripten.clang"
  },
  "schemaVersion": "3.4.13",
  "updatedAt": "2023-07-07T05:30:49.938Z",
  "networkType": "ethereum",
  "devdoc": {
    "kind": "dev",
    "methods": {},
    "version": 1
  },
  "userdoc": {
    "kind": "user",
    "methods": {},
    "version": 1
  }
}